:020000040800F2
:1000000000000220D53B000899090008A10900085A
:10001000A3090008A5090008A709000800000000BE
:10002000000000000000000000000000A909000816
:10003000AB09000800000000AD090008AF09000886
:10004000253C0008253C0008253C0008253C00080C
:10005000253C0008253C0008253C0008253C0008FC
:10006000253C0008253C0008253C0008253C0008EC
:10007000253C0008253C0008253C0008253C0008DC
:10008000253C0008253C0008253C0008253C0008CC
:10009000253C0008253C0008253C0008253C0008BC
:1000A000253C0008253C0008253C0008253C0008AC
:1000B000253C0008253C0008253C0008253C00089C
:1000C000253C0008253C0008253C0008253C00088C
:1000D000253C0008253C0008253C0008253C00087C
:1000E000253C0008253C000800000000253C0008D5
:1000F000253C0008253C0008253C0008253C00085C
:10010000253C0008253C0008253C0008253C00084B
:10011000253C0008253C0008253C0008253C00083B
:10012000253C0008253C0008253C0008253C00082B
:10013000253C0008253C0008253C0008253C00081B
:1001400000000000000000000000000000000000AF
:10015000253C0008253C0008253C0008253C0008FB
:10016000253C0008253C0008253C0008253C0008EB
:10017000253C0008253C0008253C00080000000044
:10018000253C0008253C0008253C0008253C0008CB
:10019000253C0008253C0008253C0008253C0008BB
:1001A000253C0008253C0008253C00080000000014
:1001B000253C0008253C0008253C0008253C00089B
:1001C000253C0008253C000800000000000000005D
:1001D0000000000000000000253C000800000000B6
:1001E000000000000000000000000000000000000F
:1001F0000000000000000000253C0008253C00082D
:10020000253C0008253C000800000000253C0008B3
:10021000253C0008253C0008253C0008253C00083A
:10022000253C000800000000253C000800000000FC
:10023000253C0008253C000800000000253C000883
:10024000253C0008253C0008253C0008253C00080A
:10025000253C0008253C0008253C0008253C0008FA
:10026000253C0008253C0008253C0008253C0008EA
:10027000253C0008253C0008253C00080000000043
:10028000253C0008253C0008253C0008253C0008CA
:1002900000000000253C0008253C0008000000008C
:1002A00000000000253C0008253C0008253C000813
:1002B000253C0008253C0008253C0008253C00089A
:0C02C000253C0008253C0008253C0008F7
:1002CC0010B5054C237833B9044B13B10448AFF384
:1002DC0000800123237010BD1000002000000000DE
:1002EC00803C000808B5034B1BB103490348AFF32E
:1002FC00008008BD0000000014000020803C0008B5
:10030C0053B94AB9002908BF00281CBF4FF0FF3170
:10031C004FF0FF3000F074B9ADF1080C6DE904CE6C
:10032C0000F006F8DDF804E0DDE9022304B07047C4
:10033C002DE9F047089D04468E46002B4DD18A428C
:10034C00944669D9B2FA82F252B101FA02F3C2F1BF
:10035C00200120FA01F10CFA02FC41EA030E944050
:10036C004FEA1C48210CBEFBF8F61FFA8CF708FB71
:10037C0016E341EA034306FB07F199420AD91CEB49
:10038C00030306F1FF3080F01F81994240F21C817B
:10039C00023E63445B1AA4B2B3FBF8F008FB1033C3
:1003AC0044EA034400FB07F7A7420AD91CEB0404F8
:1003BC0000F1FF3380F00A81A74240F207816444C8
:1003CC00023840EA0640E41B00261DB1D44000234D
:1003DC00C5E900433146BDE8F0878B4209D9002DB1
:1003EC0000F0EF800026C5E9000130463146BDE83B
:1003FC00F087B3FA83F6002E4AD18B4202D38242A5
:10040C0000F2F980841A61EB030301209E46002D53
:10041C00E0D0C5E9004EDDE702B9FFDEB2FA82F2A8
:10042C00002A40F09280A1EB0C014FEA1C471FFA06
:10043C008CFE0126200CB1FBF7F307FB131140EAED
:10044C0001410EFB03F0884208D91CEB010103F1BA
:10045C00FF3802D2884200F2CB804346091AA4B27C
:10046C00B1FBF7F007FB101144EA01440EFB00FE50
:10047C00A64508D91CEB040400F1FF3102D2A645B5
:10048C0000F2BB800846A4EB0E0440EA03409CE754
:10049C00C6F12007B34022FA07FC4CEA030C20FA01
:1004AC0007F401FA06F31C43F9404FEA1C4900FA21
:1004BC0006F3B1FBF9F8200C1FFA8CFE09FB18119E
:1004CC0040EA014108FB0EF0884202FA06F20BD911
:1004DC001CEB010108F1FF3A80F08880884240F261
:1004EC008580A8F102086144091AA4B2B1FBF9F0A5
:1004FC0009FB101144EA014100FB0EFE8E4508D9A0
:10050C001CEB010100F1FF346CD28E456AD9023824
:10051C00614440EA0840A0FB0294A1EB0E01A14209
:10052C00C846A64656D353D05DB1B3EB080261EB77
:10053C000E0101FA07F722FA06F3F1401F43C5E951
:10054C00007100263146BDE8F087C2F12003D84087
:10055C000CFA02FC21FA03F3914001434FEA1C47C9
:10056C001FFA8CFEB3FBF7F007FB10360B0C43EABB
:10057C00064300FB0EF69E4204FA02F408D91CEB6B
:10058C00030300F1FF382FD29E422DD90238634469
:10059C009B1B89B2B3FBF7F607FB163341EA034109
:1005AC0006FB0EF38B4208D91CEB010106F1FF3858
:1005BC0016D28B4214D9023E6144C91A46EA00464F
:1005CC0038E72E46284605E70646E3E61846F8E6E1
:1005DC004B45A9D2B9EB020864EB0C0E0138A3E72A
:1005EC004646EAE7204694E74046D1E7D0467BE70B
:1005FC00023B614432E7304609E76444023842E783
:10060C00704700BF72B6FEE700B59DB04C220021CA
:10061C0009A803F027FB2022002101A803F022FBEC
:10062C00022002F0DDFB00230093214B9A6922F497
:10063C0040429A619B6903F440430093009B1C4B1E
:10064C009B6913F4005FFAD0012209924FF48033B6
:10065C000A9302231293139314932C21159116923F
:10066C000322179218930C23199300231A931B93AC
:10067C0009A800F0EFFCB8B93F23019303210291C4
:10068C0000230393082304934023059306934FF40C
:10069C0080620792089301A801F0D4F830B900F0F9
:1006AC00CFFF1DB05DF804FBFFF7ACFFFFF7AAFF0F
:1006BC000048025810B582B002F0E4FBFFF7A4FF2B
:1006CC0000F01AF800F068F800F0E0F80849202370
:1006DC0000930B461022074803F040FA0024012334
:1006EC001A461946204603F061FA0134A4B2F6E723
:1006FC00000802582C00002030B58BB00024059463
:10070C000694079408940994214BD3F8E02042F006
:10071C000402C3F8E020D3F8E02002F004020192B6
:10072C00019AD3F8E02042F08002C3F8E020D3F81D
:10073C00E02002F080020292029AD3F8E02042F00C
:10074C000102C3F8E020D3F8E02002F0010203928A
:10075C00039AD3F8E02042F00202C3F8E020D3F869
:10076C00E03003F002030493049B0A4D224630212F
:10077C00284602F02FFB30230593012306930794A0
:10078C00089405A9284602F01BFA0BB030BD00BF37
:10079C00004402580008025808B51448144B036072
:1007AC004FF480034360002383600322C260036123
:1007BC0043614FF0005282614FF0C042C26103624C
:1007CC0043628362C3624FF0804242638363C363BC
:1007DC00036443648364C36403654365836500F009
:1007EC00E7F900B908BDFFF70DFFFBE72C0000206F
:1007FC000030014010B5B6B0044600213191329161
:10080C00339134913591B82202A803F02BFA226867
:10081C001B4B9A4201D036B010BD4FF480520023CE
:10082C00CDE9022302A801F0BBFA30BB154BD3F87B
:10083C00F02042F48052C3F8F020D3F8F02002F4F8
:10084C0080520092009AD3F8E02042F00102C3F8E3
:10085C00E020D3F8E03003F001030193019BF02377
:10086C00319302233293002333933493052335932E
:10087C0031A9054802F0A4F9CDE7FFF7C3FED5E78F
:10088C0000300140004402580000025808B51748D7
:10089C00174B03604FF4E133436000238360C36064
:1008AC0003610C2242618361C36103624362836210
:1008BC0002F0DDFF70B900210C4803F050F860B96C
:1008CC0000210A4803F070F850B9084803F028F8E2
:1008DC0048B908BDFFF796FEEDE7FFF793FEEFE78B
:1008EC00FFF790FEF1E7FFF78DFEF2E7B400002072
:1008FC000010014010B5B6B0044600213191329180
:10090C00339134913591B82202A803F0ABF92268E7
:10091C001B4B9A4201D036B010BD01220023CDE909
:10092C00022302A801F03CFA38BB164BD3F8F02096
:10093C0042F01002C3F8F020D3F8F02002F01002BD
:10094C000092009AD3F8E02042F00202C3F8E020B3
:10095C00D3F8E03003F002030193019B4FF44043C2
:10096C00319302233293002333933493042335932E
:10097C0031A9054802F024F9CDE7FFF743FED4E78F
:10098C0000100140004402580004025808B501F060
:10099C00EBF8FEE7FEE7FEE7FEE7FEE77047704781
:1009AC00704708B502F09CFA08BD000082B0074BF6
:1009BC00D3F8F42042F00202C3F8F420D3F8F43058
:1009CC0003F002030193019B02B0704700440258EC
:1009DC000649CB6823F4E0631B041B0C000200F4F3
:1009EC00E0600343024A1A43CA60704700ED00E01E
:1009FC000000FA0500B5174BDB68C3F30223C3F103
:100A0C00070CBCF1040F28BF4FF0040C03F1040ECB
:100A1C00BEF1060F14D9033B4FF0FF3E0EFA0CFC4F
:100A2C0021EA0C0199400EFA03F322EA030319435D
:100A3C00002807DB0901C9B2074B19545DF804FB08
:100A4C000023E9E700F00F000901C9B2034B195468
:100A5C00F4E700BF00ED00E000E400E014ED00E07E
:100A6C000138B0F1807F0BD24FF0E0235861054A7A
:100A7C00F02182F823100020986107221A61704738
:100A8C000120704700ED00E010B4026853699169D1
:100A9C0041F00801916101688A6942F010028A6193
:100AAC0001680A6822F001020A6001680C69294A8F
:100ABC0022400A6101688A6822F440428A6090F8F8
:100ACC008120D2B2042A0DD013F0200F0AD0D0F816
:100ADC00842042F08002C0F8842001688A6942F0C8
:100AEC0020028A6190F88120D2B2032A0DD013F033
:100AFC00400F0AD0D0F8842042F00402C0F88420C1
:100B0C0001688A6942F040028A6113F4007F0AD0BE
:100B1C00D0F8842042F00102C0F8842001688A6970
:100B2C0042F400728A6113F4807F0AD0D0F88430CA
:100B3C0043F00803C0F884300268936943F480736F
:100B4C0093610023A0F86230A0F86A305DF8044B82
:100B5C00704700BF90FCFFFFC36B5B09C068083097
:100B6C00C00803FB000070472DE9F04107460E4614
:100B7C0015461C46DDF8188000E0B4B13B685B6993
:100B8C0036EA03030CBF01230023AB420AD102F067
:100B9C00B3F9A0EB0800A042EFD3B4F1FF3FECD0C7
:100BAC00032000E00020BDE8F0810320FBE70000FB
:100BBC00002800F0B78070B50446002383620568F6
:100BCC005C4B5D4E9D4218BFB54214BF01260026FA
:100BDC0007D0A3F574439D4203D0C3680F2B00F2DA
:100BEC00A3802046FFF7B8FF2EB1544B9D4202D094
:100BFC00082800F29B804F4A4F4B9D4218BF9542EC
:100C0C0003D003F580639D4202D1102800F290803E
:100C1C0094F88130F3B1022384F881302268136890
:100C2C0023F00103136021688A6802F4F812A369A7
:100C3C00B3F1806F14D0636813F4800F23D0E36892
:100C4C00062B20D921680B6823F48073206D034395
:100C5C000B601DE084F880302046FFF7CBFDDAE70F
:100C6C006368B3F5800F06D0002BE4D1A36BB3F10E
:100C7C00805FE0D102E0A06B0028F5D10B6843F453
:100C8C0080530B60D7E721680B6823F480730B60EB
:100C9C00E369A16A0B431343E26B1343E1682268D7
:100CAC000B439360636B626A1343A26B1343A26999
:100CBC0013432269134362691343226A1343626824
:100CCC001343E26C1343A2681343A26C1343A16D4C
:100CDC0022680B43D36063686BB92268936823F472
:100CEC00C05343F4006393602268936823F4C06399
:100CFC0043F4806393602268136D23F00103136542
:100D0C00636813F4800F06D02268D36823F0004385
:100D1C00616D0B43D3600020C4F88400012384F878
:100D2C00813070BD012070470120FAE70120F8E7FF
:100D3C000120F6E70030014000380040003C004044
:100D4C002DE9F04F83B01D460C9ED0F800B090F802
:100D5C008030012B00F078810446894692460123AD
:100D6C0080F8803002F0C8F8074694F881805FFA6A
:100D7C0088F8B8F1010F37D1BAF1000F18BFB9F1EB
:100D8C00000F37D0002D35D0052384F88130002397
:100D9C00C4F88430C4F864A0A4F86A50A4F868506D
:100DAC00C4F85C90A4F86250A4F8605023676367A1
:100DBC002268D36823F4C023D36022685168A44B03
:100DCC000B402B4353602268136843F001031360FC
:100DDC006368B3F5800F14D0E3680F2B6AD8072B28
:100DEC0000F2BE80A946C7E0002384F880304FF0A3
:100DFC00020802E0002384F88030404603B0BDE8CE
:100E0C00F08F2268136843F400731360E4E702F078
:100E1C0073F8C01BB04202D3B6F1FF3F38D1002E9D
:100E2C0036D045EA09039BB2002B00F0EE80236814
:100E3C005A6912F0020F10D07DB1E26D12681A627D
:100E4C00E36D0433E365B4F862309BB2013B9BB2B3
:100E5C00A4F86230B4F86250ADB22368596948F214
:100E6C0008021142D3D0B9F1000FD0D0626E1B6BC7
:100E7C001360636E04336366B4F86A309BB2013B53
:100E8C009BB2A4F86A30B4F86A901FFA89F9BEE7ED
:100E9C002046FFF7F9FD002384F88030D4F8843025
:100EAC0043F48073C4F88430012384F881304FF00C
:100EBC000308A2E7A946B4E702F01EF8C01BB04233
:100ECC0002D3B6F1FF3F39D1002E37D045EA0903E2
:100EDC009BB2002B00F0998023685B6913F0020F22
:100EEC0011D085B1E36D1B88ABF82030E36D023374
:100EFC00E365B4F862309BB2013B9BB2A4F862305C
:100F0C00B4F86250ADB223685B6913F0010FD3D013
:100F1C00B9F1000FD0D0636EBBF830201A80636E2D
:100F2C0002336366B4F86A309BB2013B9BB2A4F8FF
:100F3C006A30B4F86A901FFA89F9BDE72046FFF7CA
:100F4C00A3FD002384F88030D4F8843043F48073FC
:100F5C00C4F88430012384F881304FF003084CE747
:100F6C00A946B3E701F0C8FFC01BB04202D3B6F1EB
:100F7C00FF3F38D1002E36D045EA09039BB2002B37
:100F8C0043D023685A6912F0020F11D085B1E26D7B
:100F9C00127883F82020E36D0133E365B4F86230F6
:100FAC009BB2013B9BB2A4F86230B4F86250ADB274
:100FBC0023685A6912F0010FD4D0B9F1000FD1D0C7
:100FCC00626E93F830301370636E01336366B4F85D
:100FDC006A309BB2013B9BB2A4F86A30B4F86A90B9
:100FEC001FFA89F9BEE72046FFF74EFD002384F86F
:100FFC008030D4F8843043F48073C4F884300123F7
:10100C0084F881304FF00308F7E60097334600224E
:10101C0008212046FFF7A8FD28B1D4F8843043F00E
:10102C002003C4F884302046FFF72EFD002384F8FB
:10103C008030012384F88130D4F88430002B7FF485
:10104C00DCAE4FF00008D8E64FF00208D5E600BF42
:10105C000000FFFF002800F0D78238B50446036873
:10106C0013F0010F25D0A04A136903F03803926ADC
:10107C00102B15D0182B0FD06368B3F5803F3FD0E1
:10108C00002B53D1984B1A6822F480321A601A68DC
:10109C0022F480221A6038E002F00302022AEBD11B
:1010AC00914B1B6813F4003F03D06368002B00F0D6
:1010BC00AD82236813F0020F00F088808A4A13690E
:1010CC00926A13F038035AD0182B55D0E368002BD2
:1010DC0000F0A98084490A6822F0190213430B60BE
:1010EC0001F00AFF0546804B1B6813F0040F40F01B
:1010FC00918001F001FF401B0228F4D903208CE2FF
:10110C00794A136843F48033136063682BB301F09E
:10111C00F3FE0546744B1B6813F4003FC9D101F074
:10112C00EBFE401B6428F5D9032076E2B3F5A02F23
:10113C0009D06D4B1A6822F480321A601A6822F4B6
:10114C0080221A60E1E7684B1A6842F480221A6028
:10115C001A6842F480321A60D7E701F0CDFE0546DA
:10116C00614B1B6813F4003FA3D001F0C5FE401B7C
:10117C006428F5D9032050E212F0030FA6D15A4B84
:10118C001B6813F0040F03D0E368002B00F04082BF
:10119C00554A136823F01903E1680B43136001F0FF
:1011AC00ABFE0546504B1B6813F0040F06D101F043
:1011BC00A3FE401B0228F5D903202EE24A4A5368AD
:1011CC0023F0FE43216943EA01635360236813F063
:1011DC00100F51D0444A136903F03803926A082B5C
:1011EC0039D0182B33D0E369002B69D03E4A1368F1
:1011FC0043F08003136001F07FFE05463A4B1B68F9
:10120C0013F4807F53D101F077FE401B0228F5D9EF
:10121C00032002E2344A536823F0FE43216943EA77
:10122C0001635360D2E7304A136823F00103136063
:10123C0001F062FE05462C4B1B6813F0040FC5D061
:10124C0001F05AFE401B0228F5D90320E5E102F01B
:10125C000302012AC7D1244B1B6813F4807F03D0EF
:10126C00E369802B40F0D6811F4AD36823F07C536E
:10127C00216A43EA0163D360236813F0080F49D055
:10128C006369002B32D0184A536F43F00103536744
:10129C0001F032FE0546144B5B6F13F0020F39D18F
:1012AC0001F02AFE401B0228F5D90320B5E10E4AB5
:1012BC00D36823F07C53216A43EA0163D360DBE7F4
:1012CC00094A136823F08003136001F015FE0546EC
:1012DC00054B1B6813F4807FCED001F00DFE401B34
:1012EC000228F5D9032098E1004402589D4A536F17
:1012FC0023F00103536701F0FFFD0546994B5B6F2B
:10130C0013F0020F06D001F0F7FD401B0228F5D9AF
:10131C00032082E1236813F0200F29D0A3699BB12D
:10132C00904A136843F48053136001F0E5FD0546C1
:10133C008C4B1B6813F4005F1AD101F0DDFD401BD0
:10134C000228F5D9032068E1864A136823F48053F8
:10135C00136001F0D1FD0546824B1B6813F4005F4E
:10136C0006D001F0C9FD401B0228F5D9032054E139
:10137C00236813F0040F21D1636A002B00F04C8119
:10138C00784A126902F03802182A00F0F380022B16
:10139C0075D0744A136823F08073136001F0ACFDB0
:1013AC000446704B1B6813F0007F00F0D88001F0EE
:1013BC00A3FD001B0228F4D903202EE16A4A13680E
:1013CC0043F48073136001F097FD0546664B1B6870
:1013DC0013F4807F06D101F08FFD401B6428F5D9F2
:1013EC0003201AE1A368012B0AD00BBB5D4B1A6FCB
:1013FC0022F001021A671A6F22F004021A6704E045
:10140C00584A136F43F001031367A36833B301F019
:10141C0073FD0546534B1B6F13F0020FACD101F05B
:10142C006BFD401B41F288339842F3D90320F4E062
:10143C00052B09D04B4B1A6F22F001021A671A6F59
:10144C0022F004021A67E0E7464B1A6F42F00402DE
:10145C001A671A6F42F001021A67D6E701F04CFDC9
:10146C000546404B1B6F13F0020F85D001F044FD75
:10147C00401B41F288339842F3D90320CDE0394A1E
:10148C00136823F08073136001F036FD0546354B6D
:10149C001B6813F0007F06D001F02EFD401B0228C4
:1014AC00F5D90320B9E02F4B996A304A0A40A16A5A
:1014BC00E06A41EA00110A439A62226B013AC2F3D4
:1014CC000802616B0139490289B20A43A16B0139E7
:1014DC00090401F4FE010A43E16B0139090601F02C
:1014EC00FE410A431A63DA6A22F00102DA62596B8E
:1014FC001F4A0A40A16C42EAC1025A63DA6A22F01E
:10150C000C02216C0A43DA62DA6A22F00202616C84
:10151C000A43DA62DA6A42F48032DA62DA6A42F454
:10152C000032DA62DA6A42F48022DA62DA6A42F073
:10153C000102DA621A6842F080721A6001F0DCFC77
:10154C000446084B1B6813F0007F06D101F0D4FC55
:10155C00001B0228F5D903205FE000205DE000208D
:10156C005BE000BF00440258004802580CFCFFFF2F
:10157C000700FFFF30498A6A086B012B4ED002F03E
:10158C000303A16A8B424BD1C2F30512E36A9A4260
:10159C0048D1C0F30802236B013B9A4244D1C0F3FB
:1015AC004622636B013B9A4240D1C0F30642A36BC7
:1015BC00013B9A423CD1C0F30660E36B013B98427D
:1015CC0038D11D4B5B6BC3F3CC03A26C9A4201D197
:1015DC00002022E0184AD36A23F00103D36201F001
:1015EC008BFC054601F088FCA842FBD0124A516BDB
:1015FC00124B0B40A16C43EAC1035363D36A43F013
:10160C000103D362002008E001207047012004E0B0
:10161C00012002E0012000E0002038BD0120FCE7A1
:10162C000120FAE70120F8E70120F6E70120F4E7B2
:10163C000120F2E70120F0E7004402580700FFFF09
:10164C00024A136843F400231360704700440258A5
:10165C00744B1B6903F03803102B00F0DE80182B41
:10166C0010D00BB1704870476E4B1B6813F0200FF5
:10167C0000F0D5806B4B1868C0F3C1006B4B23FA9C
:10168C0000F0704710B4674A916A01F00301946A44
:10169C00C4F30510D36A03F0010C536BC3F3CC03F2
:1016AC000CFB03F307EE903AF8EE677A14F47C7FA8
:1016BC0000F09380012965D0022900F09180E1B1FE
:1016CC0007EE100AF8EE476A9FED596A86EE267A05
:1016DC00544B1B6BC3F3080306EE903AF8EE666AA4
:1016EC009FED546A67EE867A76EEA77AF7EE006A7B
:1016FC0077EEA67A27EE277A60E0136813F0200FB6
:10170C0023D011461268C2F3C102484BD34007EEF6
:10171C00103AF8EE476A07EE100AB8EE476A86EE02
:10172C00867A0B6BC3F3080306EE903AF8EE666A02
:10173C009FED406A67EE867A76EEA77AF7EE006A3E
:10174C0077EEA67A27EE277A38E007EE100AF8EE45
:10175C00476A9FED396A86EE267A324B1B6BC3F3D0
:10176C00080306EE903AF8EE666A9FED326A67EE71
:10177C00867A76EEA77AF7EE006A77EEA67A27EEEF
:10178C00277A1BE007EE100AF8EE476A9FED286AED
:10179C0086EE267A234B1B6BC3F3080306EE903AB6
:1017AC00F8EE666A9FED236A67EE867A76EEA77A84
:1017BC00F7EE006A77EEA67A27EE277A194B1B6BA9
:1017CC00C3F34623013307EE903AF8EE677AC7EE7F
:1017DC00276AFCEEE67A17EE900A5DF8044B704728
:1017EC0007EE100AF8EE476A9FED146A86EE267A29
:1017FC000C4B1B6BC3F3080306EE903AF8EE666ACB
:10180C009FED0C6A67EE867A76EEA77AF7EE006AA1
:10181C0077EEA67A27EE277AD0E709487047034877
:10182C00704700BF0044025800093D000090D003EF
:10183C000024744A000000390024744C20BCBE4BB8
:10184C0040787D01002800F0328170B50D460446C9
:10185C009B4B1B6803F00F038B420BD2984A136807
:10186C0023F00F030B431360136803F00F038B4239
:10187C0040F01F81236813F0040F0CD02269914BA8
:10188C009B6903F070039A4205D98E498B6923F04A
:10189C0070031A438A61236813F0080F0CD0626935
:1018AC00884BDB6903F070039A4205D98549CB69F3
:1018BC0023F070031A43CA61236813F0100F0CD085
:1018CC00A269804BDB6903F4E0639A4205D97D4938
:1018DC00CB6923F4E0631A43CA61236813F0200F29
:1018EC000CD0E269774B1B6A03F070039A4205D95E
:1018FC0074490B6A23F070031A430A62236813F0CD
:10190C00020F0CD0E2686F4B9B6903F00F039A42F5
:10191C0005D96C498B6923F00F031A438A6123683C
:10192C0013F0010F41D0674A936923F47063A168E7
:10193C000B4393616368022B0AD0032B27D0012B36
:10194C002CD0604A126812F0040F06D10120ADE0D1
:10195C00126812F4003F00F0AE805A490A6922F076
:10196C00070213430B6101F0C7FA0646554B1B697E
:10197C0003F038036268B3EBC20F16D001F0BCFA67
:10198C00801B41F288339842F0D903208EE04D4AF7
:10199C00126812F0007FE0D1012087E0494A1268FA
:1019AC0012F4807FD9D1012080E0236813F0020F5C
:1019BC000CD0E268434B9B6903F00F039A4205D2AB
:1019CC0040498B6923F00F031A438A613C4B1B6817
:1019DC0003F00F03AB420AD9394A136823F00F0303
:1019EC002B431360136803F00F03AB4265D12368DC
:1019FC0013F0040F0CD02269324B9B6903F0700377
:101A0C009A4205D22F498B6923F070031A438A61DD
:101A1C00236813F0080F0CD062692A4BDB6903F0C2
:101A2C0070039A4205D22749CB6923F070031A43FD
:101A3C00CA61236813F0100F0CD0A269214BDB692B
:101A4C0003F4E0639A4205D21E49CB6923F4E063A8
:101A5C001A43CA61236813F0200F0CD0E269194BAA
:101A6C001B6A03F070039A4205D216490B6A23F0E5
:101A7C0070031A430A62FFF7EBFD12498B69C3F33B
:101A8C000323114AD35C03F01F03D8408B6903F086
:101A9C000F03D35C03F01F0320FA03F30B4A13600C
:101AAC000B4B18600B4B186801F0C4F970BD01208A
:101ABC0070470120FAE70120F8E70120F6E700BFA4
:101ACC000020005200440258C03C00080C000020CA
:101ADC00080000200400002008B5FFF7B9FD0B4AF0
:101AEC009369C3F303230A49CB5C03F01F0320FA69
:101AFC0003F3926902F00F02885C00F01F0023FAD6
:101B0C0000F0044A1060044A136008BD00440258F7
:101B1C00C03C00080C0000200800002008B5FFF7AE
:101B2C00DBFF054BDB69C3F30213044AD35C03F000
:101B3C001F03D84008BD00BF00440258C03C000839
:101B4C0008B5FFF7C9FF054BDB69C3F30223044A51
:101B5C00D35C03F01F03D84008BD00BF00440258FB
:101B6C00C03C00087047000008B5064B5B6E13F4D0
:101B7C00806F00D108BDFFF7F5FF024B4FF4806278
:101B8C009A66F7E700440258404B9B6A03F0030344
:101B9C00032B79D070B505460E463C4A136823F0EA
:101BAC008063136001F0A8F90446384B1B6813F0EE
:101BBC00006F06D001F0A0F9031B022BF5D903200E
:101BCC0070BD324B9A6A22F47C32296842EA0132A7
:101BDC009A626A68013AC2F30802A968013949029B
:101BEC0089B20A43E9680139090401F4FE010A4388
:101BFC0029690139090601F0FE410A439A63DA6A40
:101C0C0022F0C00269690A43DA62DA6A22F0200221
:101C1C00A9690A43DA62DA6A22F01002DA62D96B35
:101C2C001B4A0A40E96942EAC102DA63DA6A42F005
:101C3C001002DA62C6B91A46DB6A43F40023D36297
:101C4C00124A136843F08063136001F055F904469F
:101C5C000E4B1B6813F0006F14D101F04DF9001BF3
:101C6C000228F5D90320ABE7012E05D0074AD36A29
:101C7C0043F40013D362E3E7044AD36A43F48013BA
:101C8C00D362DDE700209BE7012070470044025837
:101C9C000700FFFF404B9B6A03F00303032B79D033
:101CAC0070B505460E463C4A136823F0805313600A
:101CBC0001F022F90446384B1B6813F0005F06D084
:101CCC0001F01AF9031B022BF5D9032070BD324B1E
:101CDC009A6A22F07C72296842EA01529A626A6816
:101CEC00013AC2F30802A9680139490289B20A43D0
:101CFC00E9680139090401F4FE010A432969013933
:101D0C00090601F0FE410A431A64DA6A22F44062C1
:101D1C0069690A43DA62DA6A22F40072A9690A4331
:101D2C00DA62DA6A22F48072DA62596C1B4A0A406F
:101D3C00E96942EAC1025A64DA6A42F48072DA62F0
:101D4C00C6B91A46DB6A43F48003D362124A13689D
:101D5C0043F08053136001F0CFF804460E4B1B6820
:101D6C0013F0005F14D101F0C7F8001B0228F5D95D
:101D7C000320ABE7012E05D0074AD36A43F08073EA
:101D8C00D362E3E7044AD36A43F40003D362DDE78A
:101D9C0000209BE701207047004402580700FFFF1A
:101DAC00F8B50446036813F0006F30D0436EB3F5FA
:101DBC00001F26D00ED8EBB1B3F5801F07D102213E
:101DCC000830FFF7E1FE054645B12E4621E001261D
:101DDC0035461EE0B3F5401F09D100259F4A136D0F
:101DEC0023F44013616E0B431365002611E00126AA
:101DFC0035460EE0994AD36A43F40033D36200258A
:101E0C00ECE702212830FFF745FF0546DCE700260A
:101E1C003546236813F4807F27D0A36D042B20D87C
:101E2C00DFE803F00311180808008C4AD36A43F466
:101E3C000033D362C5B9894A136D23F00703A16D32
:101E4C000B43136511E0002104F10800FFF79CFE21
:101E5C000546EFE7002104F12800FFF71BFF0546BC
:101E6C00E8E70126354600E02E46236813F4806F20
:101E7C0022D0D4F8A430B3F5800F3FD00DD8BBB32B
:101E8C00B3F5001F06D1002104F10800FFF77CFE1A
:101E9C00054608E0012635460EE0B3F5000F02D0EA
:101EAC00B3F5200F1ED185BB6C4A936D23F46003F0
:101EBC00D4F8A4100B439365236813F4006F39D046
:101ECC00D4F8A830B3F1007F5AD023D8002B51D0CE
:101EDC00B3F1807F1BD1002104F10800FFF754FE01
:101EEC0005461DE0B3F5C00FDDD001263546E3E70E
:101EFC005A4AD36A43F40033D362D4E7002104F185
:101F0C002800FFF7C7FE0546CDE72E46D4E701268D
:101F1C0035460FE0B3F1806F02D0B3F1A06F23D13F
:101F2C00002D34D14D4A936D23F0E063D4F8A81002
:101F3C000B439365236813F0007F31D0E36C202BA7
:101F4C0042D029D833B1102B23D1444AD36A43F45D
:101F5C000033D362002D3ED1404AD36C23F03003C2
:101F6C00E16C0B43D3641BE0B3F1407FD8D0012666
:101F7C003546DFE7394AD36A43F40033D362CFE7FF
:101F8C00002104F12800FFF785FE0546C8E72E4620
:101F9C00D0E70126354603E0302BDBD00126354651
:101FAC00236813F4805F3BD0E36DB3F5005F2FD053
:101FBC0016D83BB3B3F5805F0FD1002104F10800B4
:101FCC00FFF7E2FD054611E0022104F10800FFF7DE
:101FDC00DBFD0546BEE72E46E2E7012635461FE04F
:101FEC00B3F5405F02D0B3F5804F08D1BDB91B4AA1
:101FFC00136D23F4E043E16D0B43136510E00126F0
:10200C0035460DE0154AD36A43F40033D362EDE74D
:10201C00002104F12800FFF73DFE0546E6E72E46B9
:10202C00236813F4005F29D0236EB3F5003F44D02E
:10203C0019D843B1B3F5803F12D1012104F1080046
:10204C00FFF7A2FD0546002D3ED1044A136D23F483
:10205C00E023216E0B43136510E000BF00440258CF
:10206C00012635460AE0B3F5802FECD0B3F5A02F4E
:10207C00E9D0B3F5403FE6D001263546236813F48A
:10208C00804F31D0D4F8AC30B3F1005F45D020D8BC
:10209C0043B1B3F1805F19D1012104F10800FFF7BE
:1020AC0073FD0546002D3FD18F4A936D23F0E0431D
:1020BC00D4F8AC100B43936516E0012104F1280011
:1020CC00FFF7E8FD0546BEE72E46D7E70126354665
:1020DC000AE0B3F1804FE5D0B3F1A04FE2D0B3F1F9
:1020EC00405FDFD001263546236813F4004F09D03A
:1020FC00E36EB3F1805F19D0B3F1005F24D0D3B19C
:10210C0001263546236813F0807F33D0A36C032B54
:10211C005BD8DFE803F027225327012104F12800C4
:10212C00FFF7B8FD0546BDE72E46DDE76E4AD36ADC
:10213C0043F40033D36275B96B4A136D23F04053EB
:10214C00E16E0B431365DDE7012104F10800FFF795
:10215C001BFD0546EFE72E46D4E7634AD36A43F4EA
:10216C000033D362A5BB604AD36C23F00303A16C8C
:10217C000B43D364236813F4800F2BD1236813F023
:10218C00010F00F0A380A36F282B00F29D80DFE8E5
:10219C0003F08B9B9B9B9B9B9B9B859B9B9B9B9BEC
:1021AC009B9B949B9B9B9B9B9B9B8B9B9B9B9B9B8A
:1021BC009B9B8B9B9B9B9B9B9B9B8B00022104F172
:1021CC000800FFF7E1FC0546CCE701263546D1E7D0
:1021DC002E46CFE7454A136843F48073136000F032
:1021EC008BFE0746414B1B6813F4807F05D100F032
:1021FC0083FEC01B6428F5D90325002D4AD13A4B28
:10220C001B6FD4F8B020534013F4407F0CD0364BE6
:10221C001A6F22F44072196F41F480311967196FEB
:10222C0021F4803119671A67D4F8B030B3F5807F88
:10223C0015D08DBBD4F8B03003F44072B2F5407FAA
:10224C001ED0294A136923F47C53136126490B6F62
:10225C00D4F8B020C2F30B0213430B678EE700F0E7
:10226C004BFE0746204B1B6F13F0020FE1D100F021
:10227C0043FEC01B41F288339842F3D90325D8E7BB
:10228C001948026922F47C52194901EA13131343C9
:10229C000361DBE72E4671E72E466FE7012104F15F
:1022AC000800FFF771FC0546E5B90F4A536D23F0A2
:1022BC003803A16F0B43536508E0012104F128009A
:1022CC00FFF7E8FC0546EFE701263546236813F0D7
:1022DC00020F1DD0636F052B2ED8DFE803F0110B16
:1022EC00261111112E46F1E70044025800480258FD
:1022FC00CFFFFF00012104F10800FFF745FC054664
:10230C00EDB9A94A536D23F00703616F0B43536575
:10231C00236813F0040F23D0D4F89030052B45D844
:10232C00DFE803F0150F3D151515012104F1280008
:10233C00FFF7B0FC0546E3E701263546E8E72E46F5
:10234C00E6E7012104F10800FFF71EFC054685BBFA
:10235C00954A936D23F00703D4F890100B439365C3
:10236C00236813F0200F34D0D4F88C30B3F1005F15
:10237C004ED023D843B1B3F1805F1CD1002104F1BE
:10238C000800FFF701FC0546002D48D1864A536D25
:10239C0023F0E043D4F88C100B43536519E0012172
:1023AC0004F12800FFF776FC0546D0E701263546F8
:1023BC00D6E72E46D4E7012635460AE0B3F1804F26
:1023CC00E2D0B3F1A04FDFD0B3F1405FDCD00126F7
:1023DC003546236813F0400F31D0D4F89830B3F55C
:1023EC00006F4DD020D843B1B3F5806F19D10021C7
:1023FC0004F10800FFF7C8FB0546002D47D16A4AD7
:10240C00936D23F4E053D4F898100B43936516E0C6
:10241C00022104F12800FFF73DFC0546B4E72E46E7
:10242C00D7E7012635460AE0B3F5805FE5D0B3F572
:10243C00A05FE2D0B3F5406FDFD0012635462368AC
:10244C0013F0800F33D0D4F89C30B3F5804F00F0EC
:10245C00A18021D843B1B3F5005F1AD1002104F15A
:10246C000800FFF791FB0546002D40F09A804E4A7C
:10247C00936D23F46043D4F89C100B43936516E0E2
:10248C00022104F12800FFF705FC0546B5E72E46AE
:10249C00D5E7012635460AE0B3F5004FE4D0B3F595
:1024AC00204FE1D0B3F5C04FDED00126354623686E
:1024BC0013F0080F0CD0D4F88030B3F5805F75D0D2
:1024CC00394A536D23F44053D4F880100B435365B1
:1024DC00236813F0100F0CD0D4F89430B3F5807F30
:1024EC006DD0314A936D23F44073D4F894100B43A0
:1024FC009365236813F4002F0BD0D4F8A030B3F5F8
:10250C00803F75D0B3F5003F68D0002B60D001261A
:10251C003546236813F4802F0CD0D4F88430B3F5EF
:10252C00001F7DD0B3F5401F70D0B3F5801F68D06D
:10253C0001263546236813F4803F08D0236D002B09
:10254C0077D0B3F5803F00F08280012635462368B2
:10255C0013F0005F40F08480236813F4003F00F018
:10256C008C80E36FB3F5807F00F0DF8040F28280D7
:10257C00B3F5007F03D0B3F5407F40F0D480002D3D
:10258C0040F0D980084A536D23F44073E16F0B433C
:10259C00536572E0022104F12800FFF77BFB05462E
:1025AC0062E72E4683E700BF00440258022104F183
:1025BC002800FFF76FFB002882D0012680E702215C
:1025CC0004F12800FFF766FB00288AD0012688E773
:1025DC00002104F10800FFF7D7FA05467DB9724ACD
:1025EC00936D23F44033D4F8A0100B43936590E71C
:1025FC00022104F12800FFF74DFB0546EEE72E46BD
:10260C0087E7694AD36A43F40033D3627DB9664ADB
:10261C00536D23F44013D4F884100B43536589E7AE
:10262C00012104F12800FFF735FB0546EEE72E46A5
:10263C0080E75D4AD36A43F40033D36275B95A4AD2
:10264C00D36C23F48033216D0B43D3647FE70221D9
:10265C0004F10800FFF798FA0546EFE72E4676E7F7
:10266C00022104F12800FFF715FB00283FF474AF9A
:10267C00012671E7002B82D00126236813F4801FFA
:10268C0006D0494A136D23F00043216F0B431365A9
:10269C00236813F4001F06D0434A136D23F0807394
:1026AC00A16E0B431365236813F0804F09D03E4B8A
:1026BC001A6922F400421A611A69D4F8B4100A4358
:1026CC001A612368002B06DA374AD36C23F0405387
:1026DC00616D0B43D364236813F4000F07D0324AA7
:1026EC00536D23F44003D4F888100B43536563688F
:1026FC0013F0010F21D1636813F0020F26D1636828
:10270C0013F0040F2BD1636813F0080F30D16368FA
:10271C0013F0100F35D1636813F0200F3AD106B1C6
:10272C0001263046F8BD0126A7E71F4AD36A43F4B9
:10273C000033D36223E72E469FE7002104F1080003
:10274C00FFF722FA0028D6D00646D4E7012104F17F
:10275C000800FFF719FA0028D1D00646CFE702216E
:10276C0004F10800FFF710FA0028CCD00646CAE79F
:10277C00002104F12800FFF78DFA0028C7D0064687
:10278C00C5E7012104F12800FFF784FA0028C2D024
:10279C000646C0E7022104F12800FFF77BFA002867
:1027AC00BDD00646BBE700BF0044025808B5FFF792
:1027BC0093F9054B1B6AC3F30213044AD35C03F071
:1027CC001F03D84008BD00BF00440258C03C00089D
:1027DC0010B5774A916A946AC4F3053ED36AC3F381
:1027EC00001CD36BC3F3CC030CFB03F314F47C3F3E
:1027FC0000F0D88001F0030107EE903AF8EE677A0A
:10280C00012965D0022900F0B080E1B107EE10EA91
:10281C00B8EE477A9FED676AC6EE076A644B9B6B0E
:10282C00C3F3080307EE103AB8EE477A9FED626ADD
:10283C0067EE867A77EE277AB7EE007A77EE877AAC
:10284C0066EEA76A60E0136813F0200F23D01146E0
:10285C001268C2F3C102594BD34007EE103AB8EEDE
:10286C00477A06EE90EAB8EE666AC7EE066A8B6B9C
:10287C00C3F3080307EE103AB8EE477A9FED4E6AA1
:10288C0067EE867A77EE277AB7EE007A77EE877A5C
:10289C0066EEA76A38E007EE10EAB8EE477A9FEDCD
:1028AC00486AC6EE076A424B9B6BC3F3080307EEFC
:1028BC00103AB8EE477A9FED406A67EE867A77EE6B
:1028CC00277AB7EE007A77EE877A66EEA76A1BE076
:1028DC0007EE10EAB8EE477A9FED366AC6EE076A45
:1028EC00334B9B6BC3F3080307EE103AB8EE477AF1
:1028FC009FED316A67EE867A77EE277AB7EE007A2B
:10290C0077EE877A66EEA76A294A936BC3F3462360
:10291C0007EE103AB8EE477AB7EE006A37EE067A51
:10292C00C6EE877AFCEEE77AC0ED007A936BC3F3C0
:10293C00064307EE103AB8EE477A37EE067AC6EE43
:10294C00877AFCEEE77AC0ED017A936BC3F30663EA
:10295C0007EE903AF8EE677A77EE867A86EEA77AEB
:10296C00BCEEC77A80ED027A10BD07EE10EAB8EE25
:10297C00477A9FED146AC6EE076A0D4B9B6BC3F347
:10298C00080307EE103AB8EE477A9FED0B6A67EE34
:10299C00867A77EE277AB7EE007A77EE877A66EE4C
:1029AC00A76AB1E70023036043608360DCE700BFE4
:1029BC00004402580024744A000000390090D003EF
:1029CC000024744C20BCBE4B10B5774A916A946AB3
:1029DC00C4F3055ED36AC3F3002C536CC3F3CC036E
:1029EC000CFB03F314F07C7F00F0D88001F00301A2
:1029FC0007EE903AF8EE677A012965D0022900F0CB
:102A0C00B080E1B107EE10EAB8EE477A9FED676A45
:102A1C00C6EE076A644B1B6CC3F3080307EE103A4F
:102A2C00B8EE477A9FED626A67EE867A77EE277A80
:102A3C00B7EE007A77EE877A66EEA76A60E01368E5
:102A4C0013F0200F23D011461268C2F3C102594B68
:102A5C00D34007EE103AB8EE477A06EE90EAB8EE9D
:102A6C00666AC7EE066A0B6CC3F3080307EE103AEE
:102A7C00B8EE477A9FED4E6A67EE867A77EE277A44
:102A8C00B7EE007A77EE877A66EEA76A38E007EE43
:102A9C0010EAB8EE477A9FED486AC6EE076A424BD9
:102AAC001B6CC3F3080307EE103AB8EE477A9FEDA0
:102ABC00406A67EE867A77EE277AB7EE007A77EE81
:102ACC00877A66EEA76A1BE007EE10EAB8EE477A43
:102ADC009FED366AC6EE076A334B1B6CC3F30803D3
:102AEC0007EE103AB8EE477A9FED316A67EE867AB8
:102AFC0077EE277AB7EE007A77EE877A66EEA76ADA
:102B0C00294A136CC3F3462307EE103AB8EE477A02
:102B1C00B7EE006A37EE067AC6EE877AFCEEE77AF5
:102B2C00C0ED007A136CC3F3064307EE103AB8EE0F
:102B3C00477A37EE067AC6EE877AFCEEE77AC0ED76
:102B4C00017A136CC3F3066307EE903AF8EE677ADA
:102B5C0077EE867A86EEA77ABCEEC77A80ED027A9B
:102B6C0010BD07EE10EAB8EE477A9FED146AC6EE78
:102B7C00076A0D4B1B6CC3F3080307EE103AB8EE53
:102B8C00477A9FED0B6A67EE867A77EE277AB7EE77
:102B9C00007A77EE877A66EEA76AB1E700230360C6
:102BAC0043608360DCE700BF004402580024744A91
:102BBC00000000390090D0030024744C20BCBE4BA4
:102BCC00F0B583B000236BE085685E000324B4404D
:102BDC0025EA0405CC68B4402C438460446824EA9C
:102BEC000C0C4C68C4F300149C4044EA0C04446084
:102BFC0068E0DD08083550F8256003F007044FEA5B
:102C0C00840C0F2404FA0CF426EA040E0C6904FA62
:102C1C000CF444EA0E0440F825406BE0092400E073
:102C2C00002404FA0EF42C430CF1020C664D45F80A
:102C3C002C404FF0B0442568D44325EA02064F6877
:102C4C0017F4801F01D042EA05064FF0B0452E6004
:102C5C006D6804EA05064F6817F4001F01D042EABC
:102C6C0005064FF0B0456E60D5F8845004EA0506B1
:102C7C004F6817F4003F01D042EA05064FF0B0450B
:102C8C00C5F88460D5F880502C404E6816F4803F0F
:102C9C0001D042EA05044FF0B042C2F88040013343
:102CAC000A6832FA03F400F08C804FF0010C0CFA35
:102CBC0003FC1CEA0202F2D04C6804F00304013C51
:102CCC00012C81D94C6804F00304032C0CD0C4688B
:102CDC005D004FF0030C0CFA05FC24EA0C0C8C681C
:102CEC00AC4044EA0C04C4604C6804F00304022CAD
:102CFC003FF47FAF04684FEA430E4FF0030C0CFA1D
:102D0C000EFC24EA0C0C4C6804F0030404FA0EF4D8
:102D1C0044EA0C0404604C6814F4403FBFD02B4CC4
:102D2C00D4F8F45045F00205C4F8F450D4F8F4404B
:102D3C0004F002040194019C4FEA930C0CF102057F
:102D4C00214C54F8255003F003044FEA840E0F2451
:102D5C0004FA0EF425EA04051D4CA0423FF460AFC2
:102D6C0004F58064A0421ED004F58064A0421CD0FF
:102D7C0004F58064A0421AD004F58064A04218D0F7
:102D8C0004F58064A04216D004F58064A04214D0EF
:102D9C0004F58064A04212D004F50064A0423FF414
:102DAC003DAF0A243DE701243BE7022439E7032425
:102DBC0037E7042435E7052433E7062431E70724F5
:102DCC002FE703B0F0BD00BF0004005800440258C8
:102DDC00000002580AB18161704709048161704793
:102DEC00134BDB6813F0040F07D1114BDB6803F0B6
:102DFC00070383421AD00120704710B50C4AD368E0
:102E0C0023F007031843D06000F076F80446084B13
:102E1C005B6813F4005F07D100F06EF8001BB0F58F
:102E2C007A7FF4D9012000E0002010BD002070470B
:102E3C0000480258104B1B780BB90120704710B595
:102E4C0004464FF47A70B0FBF3F30C4A1068B0FBF5
:102E5C00F3F0FDF705FE68B90F2C01D901200AE04B
:102E6C00002221464FF0FF30FDF7C4FD044B1C60DF
:102E7C00002000E0012010BD000000200800002010
:102E8C000400002010B50320FDF7A2FDFEF7E0FBC7
:102E9C000F498B69C3F303230E4AD35C03F01F0362
:102EAC00D8408B6903F00F03D35C03F01F0320FAA7
:102EBC0003F3094A1360094B18600F20FFF7BAFFA0
:102ECC0010B10124204610BD0446FDF76FFDF9E753
:102EDC0000440258C03C00080C00002008000020F0
:102EEC00034B1B78034A11680B441360704700BFF7
:102EFC000000002048010020014B1868704700BFFB
:102F0C004801002038B50446FFF7F6FF0546B4F13A
:102F1C00FF3F02D0044B1B781C44FFF7EDFF401B16
:102F2C00A042FAD338BD00BF00000020026852E86E
:102F3C00003F23F4907342E800310029F6D1026877
:102F4C0002F1080353E8001F0D4B0B40083242E816
:102F5C0000310029F3D1C36E012B06D02023C0F819
:102F6C008C300023C36643677047026852E8003F09
:102F7C0023F0100342E800310029F6D1EEE700BF40
:102F8C00FEFFFFEF70B586B00446016883680269E6
:102F9C00134342691343C26913430868904A0240C1
:102FAC0013430B602268536823F44053E1680B43CE
:102FBC005360A16922688B4B9A4201D0236A194352
:102FCC009068894B03400B4393602268D36A23F0CB
:102FDC000F03616A0B43D3622268844B9A4229D057
:102FEC00834B9A4200F09480824B9A4200F0AA8064
:102FFC00814B9A4200F0C080804B9A4200F0D68000
:10300C007F4B9A4200F008817E4B9A4200F02D8152
:10301C007D4B9A4200F040817C4B9A4200F05381E8
:10302C007B4B9A4200F078816E4B9A4200F09D8166
:10303C00802333E0774B5B6D03F03803282B65D886
:10304C00DFE813F02900640064006400640064008D
:10305C0064006400AB0164006400640064006400FC
:10306C00640064002B00640064006400640064006D
:10307C00640064005E00640064006400640064002A
:10308C006400640060006400640064006400640018
:10309C00640064006200012300E0082351498A4265
:1030AC0000F09481E069B0F5004F00F00A82202B0B
:1030BC0000F26282202B00F2AC82DFE813F079027E
:1030CC007F02AA02AA028202AA02AA02AA0287020A
:1030DC00AA02AA02AA02AA02AA02AA02AA028C02A2
:1030EC00AA02AA02AA02AA02AA02AA02AA02AA0274
:1030FC00AA02AA02AA02AA02AA02AA02AA02980276
:10310C001023CBE72023C9E74023C7E78023C5E77B
:10311C00404B5B6D03F00703052B11D8DFE813F070
:10312C0006003F0108000A000C000E000023B5E762
:10313C000823B3E71023B1E72023AFE74023ADE723
:10314C008023ABE7334B5B6D03F00703052B11D8E2
:10315C00DFE813F00600270108000A000C000E003F
:10316C0000239BE7082399E7102397E7202395E793
:10317C00402393E7802391E7264B5B6D03F0070315
:10318C00052B11D8DFE813F006000F0108000A0028
:10319C000C000E00002381E708237FE710237DE756
:1031AC0020237BE7402379E7802377E7194B5B6D7E
:1031BC0003F00703052B11D8DFE813F00600F70026
:1031CC0008000A000C000E00002367E7082365E7DF
:1031DC00102363E7202361E740235FE780235DE74B
:1031EC00F369FFCF000C0058FFF4FF1100100140F1
:1031FC000044004000480040004C0040005000409B
:10320C000014014000780040007C00400018014090
:10321C00001C014000440258694B5B6D03F03803FD
:10322C00282B20D8DFE803F0151F1F1F1F1F1F1F9F
:10323C00C31F1F1F1F1F1F1F171F1F1F1F1F1F1FF6
:10324C00191F1F1F1F1F1F1F1B1F1F1F1F1F1F1F8C
:10325C001D00012322E7082320E710231EE720236B
:10326C001CE740231AE7802318E7554B5B6D03F0EE
:10327C000703052B0ED8DFE803F0039C0507090BA9
:10328C0000230BE7082309E7102307E7202305E7B2
:10329C00402303E7802301E7494B5B6D03F00703F1
:1032AC00052B0ED8DFE803F003870507090B002375
:1032BC00F4E60823F2E61023F0E62023EEE64023A2
:1032CC00ECE68023EAE63E4B5B6D03F03803282BDB
:1032DC0020D8DFE803F0151F1F1F1F1F1F1F721FB1
:1032EC001F1F1F1F1F1F171F1F1F1F1F1F1F191FF0
:1032FC001F1F1F1F1F1F1B1F1F1F1F1F1F1F1D00F7
:10330C000123CBE60823C9E61023C7E62023C5E634
:10331C004023C3E68023C1E6294B5B6D03F03803E1
:10332C00282B20D8DFE803F0151F1F1F1F1F1F1F9E
:10333C004E1F1F1F1F1F1F1F171F1F1F1F1F1F1F6A
:10334C00191F1F1F1F1F1F1F1B1F1F1F1F1F1F1F8B
:10335C001D000123A2E60823A0E610239EE62023ED
:10336C009CE640239AE6802398E603F50E339B6D8A
:10337C0003F00703052B0ED8DFE803F0032605073F
:10338C00090B02238AE6082388E6102386E620230D
:10339C0084E6402382E6802380E604237EE6042331
:1033AC007CE604237AE6042378E6042376E60423F9
:1033BC0074E6042372E6042370E604236EE600BF71
:1033CC0000440258042369E6042367E6202B27D81F
:1033DC00022BC0F01081023B1E2B00F20E81DFE8A5
:1033EC0013F050000C0156000C010C010C015B0099
:1033FC000C010C010C010C010C010C010C01600006
:10340C000C010C010C010C010C010C010C010C0148
:10341C000C010C010C010C010C010C010C016C00D9
:10342C00402B2CD14FF40040626A804B33F81220B1
:10343C00B0FBF2F3656805EB4501994200F2DF80C1
:10344C00B3EB053F00F2DD80002633463146FCF736
:10345C0057FF090241EA106100026B08C0182A46A6
:10346C00334641F10001FCF74BFFA0F54072704B65
:10347C009A4200F2C8802368D8603046CAE0012026
:10348C00C8E0FFF793F90028CED10020C2E003A8D2
:10349C00FFF79EF90498F6E76846FFF795FA01984E
:1034AC00F1E7644B1B6813F0200F08D0614B1B68CD
:1034BC00C3F3C1036048D840E5E76048B4E75E4811
:1034CC00B2E7202B15D8202B00F29F80DFE803F009
:1034DC0031379D9D3A9D9D9D3F9D9D9D9D9D9D9DA3
:1034EC00449D9D9D9D9D9D9D9D9D9D9D9D9D9D9D59
:1034FC005000402B1BD1626A4C4B33F81230B0FB9E
:10350C00F3F06268530803EB4000B0FBF2F0A0F15B
:10351C0010024FF6EF739A4279D883B223F00F035F
:10352C00C0F3420018432368D860002072E00120E9
:10353C0070E0FEF7F3FA0028DDD100206AE0FEF718
:10354C00FFFAF8E703A8FFF743F90498F3E7684696
:10355C00FFF73AFA0198EEE7364B1B6813F0200F91
:10356C0008D0344B1B68C3F3C1033348D840E2E79F
:10357C003248C0E73048BEE7402B17D14FF400402B
:10358C00626A2A4B33F81230B0FBF3F0636800EB3D
:10359C005300B0FBF3F0A0F110024FF6EF739A4218
:1035AC0042D8236880B2D860002033E0012031E09B
:1035BC00FEF7B4FA0028E3D100202BE0FEF7C0FAA6
:1035CC00F8E703A8FFF704F90498F3E76846FFF758
:1035DC00FBF90198EEE7174B1B6813F0200F08D08E
:1035EC00144B1B68C3F3C1031348D840E2E71348DC
:1035FC00C6E71148C4E701200CE001200AE00120D5
:10360C0008E0012006E0012004E0012002E0012096
:10361C0000E001200123A4F86A30A4F868300023EC
:10362C006367A36706B070BD0120F3E7983C000800
:10363C00FFFC0F00004402580090D00300093D002D
:10364C00836A13F0010F06D00268536823F4003329
:10365C00C16A0B435360836A13F0020F06D00268F1
:10366C00536823F48033016B0B435360836A13F06C
:10367C00040F06D00268536823F48023416B0B437C
:10368C005360836A13F0080F06D00268536823F462
:10369C000043816B0B435360836A13F0100F06D009
:1036AC000268936823F48053C16B0B439360836A65
:1036BC0013F0200F06D00268936823F40053016CBA
:1036CC000B439360836A13F0400F0AD0026853686F
:1036DC0023F48013416C0B435360436CB3F5801F90
:1036EC000BD0836A13F0800F06D00268536823F462
:1036FC000023C16C0B43536070470268536823F47A
:10370C00C003816C0B435360EBE72DE9F84305468E
:10371C000F4616469946DDF820802C68E46937EA96
:10372C0004030CBF4FF0010C4FF0000CB44532D128
:10373C00B8F1FF3FF1D0FFF7DFFBA0EB09004045EC
:10374C002CD8B8F1000F2BD02B681A6812F0040F8C
:10375C00E3D0DA6912F0080F11D1DA6912F4006FB4
:10376C00DBD04FF400621A622846FFF7DFFB202300
:10377C00C5F89030002385F8843003200CE0082431
:10378C001C622846FFF7D2FBC5F89040002385F851
:10379C008430012000E00020BDE8F8830320FBE723
:1037AC000320F9E730B583B004460023C0F890300D
:1037BC00FFF7A2FB05462268126812F0080F10D121
:1037CC0023681B6813F0040F28D12023C4F8883019
:1037DC00C4F88C300020E066206784F8840003B0C5
:1037EC0030BD6FF07E430093034600224FF400116E
:1037FC002046FFF78AFF0028E2D0226852E8003FFB
:10380C0023F0800342E800310029F6D12023C4F8CC
:10381C008830002384F884300320E0E76FF07E4387
:10382C0000932B4600224FF480012046FFF76DFFDA
:10383C000028CAD0226852E8003F23F4907342E873
:10384C0000310029F6D1226802F1080353E8003F49
:10385C0023F00103083242E800310029F3D1202380
:10386C00C4F88C30002384F884300320B7E778B395
:10387C0010B50446D0F888300BB32423C4F8883034
:10388C002268136823F0010313602046FFF77AFBCC
:10389C00012813D0A36ABBB92268536823F4904360
:1038AC0053602268936823F02A039360226813689C
:1038BC0043F0010313602046FFF774FF10BD80F83E
:1038CC008430FDF717F8D8E72046FFF7B9FEE3E799
:1038DC0001207047436E2BB90123A0F86A30A0F881
:1038EC006830704730B403689A68C2F342629968D2
:1038FC00490F094D6B5C1B01084C615C93FBF1F3A8
:10390C00A0F86A30AB5C1B01A25C93FBF2F3A0F84D
:10391C00683030BC704700BFB83C0008B03C0008B1
:10392C0090F88430012B18D0012380F884302423A4
:10393C00C0F8883003681A68196821F00101196011
:10394C0022F000520023436601680A602022C0F86E
:10395C00882080F88430184670470220704738B5AC
:10396C0090F88430012B1DD00446012380F884305C
:10397C002423C0F8883003681D681A6822F00102FD
:10398C001A600268936823F0604319439160FFF753
:10399C00A1FF23681D602023C4F88830002084F820
:1039AC00840038BD0220FCE738B590F88430012B38
:1039BC001DD00446012380F884302423C0F88830BD
:1039CC0003681D681A6822F001021A600268936885
:1039DC0023F0606319439160FFF77CFF23681D603F
:1039EC002023C4F88830002084F8840038BD0220DD
:1039FC00FCE70000224AD2F8883043F47003C2F886
:103A0C008830204B1B6803F00F03062B06D81D4A89
:103A1C00136823F00F0343F0070313601A4B1A6863
:103A2C0042F001021A6000221A611968174A0A4012
:103A3C001A60144B1B6813F0080F06D0114A136858
:103A4C0023F00F0343F0070313600F4B00229A611E
:103A5C00DA611A620E4999620E49D9620E491963EC
:103A6C005A639963DA6319645A64196821F48021E2
:103A7C0019601A66094B43F2D2021A60704700BFF4
:103A8C0000ED00E000200052004402587FEDF6EA01
:103A9C00000202020000FF018002010100400052FE
:103AAC0010B510F0010402D14CB9002010BD002259
:103ABC00074B1988074B1868FFF78CF9F4E70022BD
:103ACC00054B1988054B1868FFF784F9EDE700BF23
:103ADC0054010020500100205C01002058010020FE
:103AEC0010B5044610F0010F04D114F0020F09D1E7
:103AFC00002010BD0122074B1988074B1868FFF7EF
:103B0C0069F9F2E70122054B1988054B1868FFF794
:103B1C0061F9EDE754010020500100205C01002008
:103B2C005801002000B587B003904FF0FF3300938D
:103B3C00012305AA03A904480068FDF701F90598BB
:103B4C0007B05DF804FB00BF4C01002008B5090468
:103B5C0041EA00501043FFF7E5FF08BD10B50E4CCD
:103B6C0020600E4801600E490A800E4A1360BDF8B1
:103B7C0008200D4B1A800320FFF7B2FF0120FFF73E
:103B8C00C1F90220FFF78CFF0120FFF7BBF90220DF
:103B9C00FFF7A6FF002010BD4C01002050010020B3
:103BAC0054010020580100205C01002008B5844617
:103BBC00104602B101200BB140F002001FFA8CF24A
:103BCC00FFF7C4FF08BD0000DFF834D0FFF712FF89
:103BDC000C480D490D4A002302E0D458C45004335C
:103BEC00C4188C42F9D30A4A0A4C002301E0136032
:103BFC000432A242FBD300F011F8FCF75BFD7047D6
:103C0C00000002200000002010000020E03C000812
:103C1C001000002060010020FEE7000070B50D4D83
:103C2C000D4C641BA4100026A64209D10B4D0C4C64
:103C3C0000F020F8641BA4100026A64205D170BD2C
:103C4C0055F8043B98470136EEE755F8043B984786
:103C5C000136F2E7D83C0008D83C0008D83C0008F4
:103C6C00DC3C000802440346934200D1704703F841
:103C7C00011BF9E7F8B500BFF8BC08BC9E467047BD
:0C3C8C00F8B500BFF8BC08BC9E467047AD
:103C9800010002000400060008000A000C001000E1
:103CA800200040008000000108040204080101010E
:103CB80001010103070100000000000001020304E4
:083CC8000102030406070809CC
:083CD0006CC6FF7F010000003B
:043CD800F1020008ED
:043CDC00CD0200080D
:103CE00001000000100000000090D0030090D003FD
:0400000508003BD5DF
:00000001FF
